8=FIX.4.2|9=72|35=A|34=1|49=BANZAI|52=20220418-07:20:39.011|56=FIXIMULATOR|98=0|108=30|10=000|8=FIX.4.2|9=60|35=0|34=2|49=BANZAI|52=20220418-07:21:09.532|56=FIXIMULATOR|10=218|8=FIX.4.2|9=60|35=0|34=3|49=BANZAI|52=20220418-07:21:39.536|56=FIXIMULATOR|10=226|8=FIX.4.2|9=60|35=0|34=4|49=BANZAI|52=20220418-07:22:10.004|56=FIXIMULATOR|10=207|8=FIX.4.2|9=60|35=0|34=5|49=BANZAI|52=20220418-07:22:40.527|56=FIXIMULATOR|10=221|8=FIX.4.2|9=60|35=0|34=6|49=BANZAI|52=20220418-07:23:10.538|56=FIXIMULATOR|10=222|8=FIX.4.2|9=60|35=0|34=7|49=BANZAI|52=20220418-07:23:40.993|56=FIXIMULATOR|10=231|8=FIX.4.2|9=60|35=0|34=8|49=BANZAI|52=20220418-07:24:11.003|56=FIXIMULATOR|10=213|8=FIX.4.2|9=60|35=0|34=9|49=BANZAI|52=20220418-07:24:41.003|56=FIXIMULATOR|10=217|8=FIX.4.2|9=61|35=0|34=10|49=BANZAI|52=20220418-07:25:11.535|56=FIXIMULATOR|10=010|8=FIX.4.2|9=61|35=0|34=11|49=BANZAI|52=20220418-07:25:41.991|56=FIXIMULATOR|10=020|8=FIX.4.2|9=61|35=0|34=12|49=BANZAI|52=20220418-07:26:11.998|56=FIXIMULATOR|10=026|8=FIX.4.2|9=138|35=D|34=13|49=BANZAI|52=20220418-07:26:18.806|56=FIXIMULATOR|11=1650266778797|21=1|38=1000|40=1|54=1|55=IBM|59=0|60=20220418-07:26:18.805|10=212|8=FIX.4.2|9=61|35=0|34=14|49=BANZAI|52=20220418-07:26:49.001|56=FIXIMULATOR|10=014|8=FIX.4.2|9=61|35=0|34=15|49=BANZAI|52=20220418-07:27:19.005|56=FIXIMULATOR|10=017|8=FIX.4.2|9=61|35=0|34=16|49=BANZAI|52=20220418-07:27:49.999|56=FIXIMULATOR|10=043|8=FIX.4.2|9=61|35=0|34=17|49=BANZAI|52=20220418-07:28:20.000|56=FIXIMULATOR|10=007|8=FIX.4.2|9=61|35=0|34=18|49=BANZAI|52=20220418-07:28:50.995|56=FIXIMULATOR|10=034|8=FIX.4.2|9=145|35=D|34=19|49=BANZAI|52=20220418-07:29:11.438|56=FIXIMULATOR|11=1650266951442|21=1|38=1000|40=2|44=200|54=1|55=IBM|59=0|60=20220418-07:29:11.438|10=248|8=FIX.4.2|9=140|35=F|34=20|49=BANZAI|52=20220418-07:29:22.144|56=FIXIMULATOR|11=1650266962151|38=1000|41=1650266951442|54=1|55=IBM|60=20220418-07:29:22.144|10=112|8=FIX.4.2|9=140|35=F|34=21|49=BANZAI|52=20220418-07:29:24.861|56=FIXIMULATOR|11=1650266964869|38=1000|41=1650266778797|54=1|55=IBM|60=20220418-07:29:24.861|10=167|8=FIX.4.2|9=73|35=A|34=22|49=BANZAI|52=20220418-08:38:40.411|56=FIXIMULATOR|98=0|108=30|10=058|8=FIX.4.2|9=137|35=D|34=23|49=BANZAI|52=20220418-08:38:58.449|56=FIXIMULATOR|11=1650271138433|21=1|38=100|40=1|54=1|55=ibm|59=0|60=20220418-08:38:58.447|10=254|8=FIX.4.2|9=61|35=0|34=24|49=BANZAI|52=20220418-08:39:29.382|56=FIXIMULATOR|10=030|8=FIX.4.2|9=61|35=0|34=25|49=BANZAI|52=20220418-08:39:59.392|56=FIXIMULATOR|10=035|8=FIX.4.2|9=61|35=0|34=26|49=BANZAI|52=20220418-08:40:30.390|56=FIXIMULATOR|10=015|8=FIX.4.2|9=61|35=0|34=27|49=BANZAI|52=20220418-08:41:00.397|56=FIXIMULATOR|10=021|8=FIX.4.2|9=61|35=0|34=28|49=BANZAI|52=20220418-08:41:31.382|56=FIXIMULATOR|10=020|8=FIX.4.2|9=61|35=0|34=29|49=BANZAI|52=20220418-08:42:01.390|56=FIXIMULATOR|10=018|