8=FIX.4.2|9=72|35=A|34=1|49=FIXIMULATOR|52=20220418-07:20:39.039|56=BANZAI|98=0|108=30|10=010|8=FIX.4.2|9=60|35=0|34=2|49=FIXIMULATOR|52=20220418-07:21:09.532|56=BANZAI|10=218|8=FIX.4.2|9=60|35=0|34=3|49=FIXIMULATOR|52=20220418-07:21:39.534|56=BANZAI|10=224|8=FIX.4.2|9=60|35=0|34=4|49=FIXIMULATOR|52=20220418-07:22:10.006|56=BANZAI|10=209|8=FIX.4.2|9=60|35=0|34=5|49=FIXIMULATOR|52=20220418-07:22:40.525|56=BANZAI|10=219|8=FIX.4.2|9=60|35=0|34=6|49=FIXIMULATOR|52=20220418-07:23:10.535|56=BANZAI|10=219|8=FIX.4.2|9=60|35=0|34=7|49=FIXIMULATOR|52=20220418-07:23:40.995|56=BANZAI|10=233|8=FIX.4.2|9=60|35=0|34=8|49=FIXIMULATOR|52=20220418-07:24:11.005|56=BANZAI|10=215|8=FIX.4.2|9=60|35=0|34=9|49=FIXIMULATOR|52=20220418-07:24:41.521|56=BANZAI|10=222|8=FIX.4.2|9=61|35=0|34=10|49=FIXIMULATOR|52=20220418-07:25:11.535|56=BANZAI|10=010|8=FIX.4.2|9=61|35=0|34=11|49=FIXIMULATOR|52=20220418-07:25:41.993|56=BANZAI|10=022|8=FIX.4.2|9=61|35=0|34=12|49=FIXIMULATOR|52=20220418-07:26:12.000|56=BANZAI|10=001|8=FIX.4.2|9=61|35=0|34=13|49=FIXIMULATOR|52=20220418-07:26:42.524|56=BANZAI|10=016|8=FIX.4.2|9=61|35=0|34=14|49=FIXIMULATOR|52=20220418-07:27:12.525|56=BANZAI|10=016|8=FIX.4.2|9=61|35=0|34=15|49=FIXIMULATOR|52=20220418-07:27:42.535|56=BANZAI|10=021|8=FIX.4.2|9=61|35=0|34=16|49=FIXIMULATOR|52=20220418-07:28:13.531|56=BANZAI|10=017|8=FIX.4.2|9=61|35=0|34=17|49=FIXIMULATOR|52=20220418-07:28:44.532|56=BANZAI|10=023|8=FIX.4.2|9=61|35=0|34=18|49=FIXIMULATOR|52=20220418-07:29:14.536|56=BANZAI|10=026|8=FIX.4.2|9=73|35=A|34=19|49=FIXIMULATOR|52=20220418-08:38:40.442|56=BANZAI|98=0|108=30|10=068|8=FIX.4.2|9=61|35=0|34=20|49=FIXIMULATOR|52=20220418-08:39:11.186|56=BANZAI|10=019|8=FIX.4.2|9=61|35=0|34=21|49=FIXIMULATOR|52=20220418-08:39:41.187|56=BANZAI|10=024|8=FIX.4.2|9=61|35=0|34=22|49=FIXIMULATOR|52=20220418-08:40:11.187|56=BANZAI|10=014|8=FIX.4.2|9=61|35=0|34=23|49=FIXIMULATOR|52=20220418-08:40:42.191|56=BANZAI|10=014|8=FIX.4.2|9=176|35=8|34=24|49=FIXIMULATOR|52=20220418-08:40:53.982|56=BANZAI|6=0|11=1650271138433|14=0|17=E1650271253967|20=0|31=0|32=0|37=O1650271138492|38=100|39=0|54=1|55=ibm|150=0|151=100|10=223|8=FIX.4.2|9=177|35=8|34=25|49=FIXIMULATOR|52=20220418-08:41:22.828|56=BANZAI|6=0|11=1650271138433|14=10|17=E1650271268675|20=0|31=0|32=10|37=O1650271138492|38=100|39=1|54=1|55=ibm|150=1|151=90|10=027|8=FIX.4.2|9=61|35=0|34=26|49=FIXIMULATOR|52=20220418-08:41:53.194|56=BANZAI|10=023|8=FIX.4.2|9=177|35=8|34=27|49=FIXIMULATOR|52=20220418-08:42:02.979|56=BANZAI|6=0|11=1650271138433|14=100|17=E1650271318657|20=0|31=0|32=90|37=O1650271138492|38=100|39=2|54=1|55=ibm|150=2|151=0|10=032|